:06000000000080310A2817
:100008007E1480318F310A277E10090080310C2838
:100018008430840094308500C03086000130870029
:100028000030FF0015309331DF238031EC01ED0102
:10003800EE01EF012100C601C701C801C901CA01CB
:10004800D5308400013085000B30FE000030FF0001
:100058009331D32380312030840002308500203052
:10006800FE000030FF009331D3237E1020008B3137
:10007800932BD30123004F082000E20023004E08F1
:100088002000E100610886006208870041310630DF
:100098000106031DE7286108860062088700803092
:1000A8000106031DE72861088600620887004231BF
:1000B800403FC500413FC6004608C7004708DC006E
:1000C800610886006208870042310108C5004508BA
:1000D800DD005C03031D8C287730B1009830B20036
:1000E80077308400983085000008C500C6014508AF
:1000F800B3004608B40061088600620887004631EC
:10010800403FB500413FB600873174278031132B3B
:1001180002305C06031DC0285D0803199728933137
:1001280091238031132B5D35D33E86000130870043
:10013800403FD500413FD6005608B2005508B100EF
:100148005608C6005508C500023045078400460811
:100158000318460A8500003FB300013FB400610858
:100168008600620887004631403FB500413FB6002F
:10017800873174278031132B03305C06031D9328C5
:100188005E30C5004508F0005D088A3113228031D1
:100198007108D8007008D700D81B93285F08B200F0
:1001A8005E08B1005808B4005708B300610886001B
:1001B800620887004631403FB500413FB6008731AD
:1001C80074278031132B610886006208870041314B
:1001D80005300106031D02292300DF01DF0A200084
:1001E800610886006208870042310108C500450899
:1001F8002300DE00933180238031132B61088600B1
:1002080062088700413109300106031D2029610871
:1002180086006208870042310108C5004508D10000
:100228008631342680319331802380315108C500CE
:1002380045082100CA00132B610886006208870060
:10024800413108300106031D3E29CA30B100003093
:10025800B2000130B3000030B400610886006208C3
:1002680087004631403FB500413FB60087317427CB
:100278008031132B6108860062088700413101082C
:10028800031DCC29610886006208870001081F3910
:10029800003A031D6629CB01CC014B30B100003078
:1002A800B2000230B3000030B40061088600620872
:1002B80087004631403FB500413FB600873174277B
:1002C8008031132B610886006208870001081F39F6
:1002D800023A031D932861088600620887004431AA
:1002E80001080F39C5004508D90002305902031822
:1002F80093285908C500C6014508F0004608F100D2
:100308000730F2000030F300953143258031C630C4
:100318002000C7000130C800700847078600710830
:10032800483D87000108C9004908DA0061088600CD
:10033800620887004431811BA4295A080139A6297B
:100348005A080239C500C6014508CF004608D00042
:100358004F0850040319B2290130B3290030C500F1
:100368004508CD00CE014D30B1000030B20002305A
:10037800B3000030B4006108860062088700463187
:10038800403FB500413FB600873174278031132BB9
:10039800610886006208870041310B3001060319A5
:1003A800FE28610886006208870041310A3001068C
:1003B800031DF429D2015230B1000030B2000130DF
:1003C800B3000030B4006108860062088700463137
:1003D800403FB500413FB600873174278031132B69
:1003E8006108860062088700413101030319052A64
:1003F8006108860062088700413103300106031D49
:10040800112BD401D40A610886006208870001080C
:100418001F39023A031D0D2B610886006208870008
:10042800423116000104031D0D2B61088600620885
:100438008700443101080F39C5004508E00061080C
:10044800860062088700443101088039C5004508E4
:10045800DB000230600203180D2B61088600620879
:100468008700413103300106031D472A5B08031941
:10047800422A600897312C2780310B2B600897316E
:10048800072780310B2B5B0803199D2A6008C500DC
:10049800C6014508F0004608F1000730F2000030B8
:1004A800F300953143258031C5302000C700013065
:1004B800C8007008470786007108483D8700010892
:1004C800C9006008CA000230CA35FF3E031D682A09
:1004D8004A35253E86008701490881006008C50025
:1004E8000230C535FF3E031D752A4535243E86007A
:1004F80087018101F730C5006008C600C7014608BA
:10050800F0004708F1000730F2000030F3009531A1
:1005180043258031C6302000C8000130C90070086A
:10052800480786007108493D870045088105FD3068
:10053800EF2A6008C500C6014508F0004608F1002A
:100548000730F2000030F300953143258031C43084
:100558002000C7000130C8007008470786007108EE
:10056800483D87000108C9006008CA000230CA3542
:10057800FF3E031DBB2A4A35213E860087014908F4
:1005880081008830C5006008C6000230C635FF3ECD
:10059800031DCA2A4635203E86008701450881008A
:1005A8006008C500C6014508F0004608F10007309C
:1005B800F2000030F300953143258031C630200029
:1005C800C7000130C8007008470786007108483D19
:1005D80087000115FE30C5006008C600C70146083F
:1005E800F0004708F1000730F2000030F3009531C1
:1005F80043258031C6302000C8000130C90070088A
:10060800480786007108493D870045088105200094
:10061800D40154080319FE289328D301D3032000DA
:1006280053080800073021004706031D312B4908ED
:10063800A6004808A5002130A7009930A800073077
:10064800A9000030AA008831A82083312508260493
:10065800031D312B93316A23080008304706031D18
:100668004B2B4908A6004808A500E830A700983099
:10067800A8000830A9000030AA008831A8208331DA
:1006880025082604031D4B2B9331652308000E30E3
:100698004706031D652B4908A6004808A5006830D1
:1006A800A7009830A8000E30A9000030AA008831B1
:1006B800A820833125082604031D652B9331742354
:1006C80008000D304706031D7F2B4908A60048087F
:1006D800A5009730A7009830A8000D30A900003079
:1006E800AA008831A820833125082604031D7F2B02
:1006F80093316F23080007304706031D992B4908DB
:10070800A6004808A500F930A7009830A8000730CF
:10071800A9000030AA008831A820833125082604C2
:10072800031D992B94310924080007304706031D3F
:10073800B32B4908A6004808A5000130A700993046
:10074800A8000730A9000030AA008831A82083310A
:1007580025082604031DB32B94311A2408000730FA
:100768004706031DCD2B4908A6004808A5000930F7
:10077800A7009930A8000730A9000030AA008831E6
:10078800A820833125082604031DCD2B94312B2462
:10079800080007304706031DE72B4908A60048084C
:1007A800A5001130A7009930A8000730A900003033
:1007B800AA008831A820833125082604031DE72BC9
:1007C80094313C2408000A304706031D072C4908C9
:1007D800A6004808A500F130A7009830A800073007
:1007E800A9000030AA008831A820833125082604F2
:1007F800031D072C4808073EAE000030493DAF00F6
:1008080096317C26080006304706031D212C49082E
:10081800A6004808A5002930A7009930A80006308E
:10082800A9000030AA008831A820833125082604B1
:10083800031D212C8931D121080007304706031DEB
:100848003B2C4908A6004808A5001930A700993094
:10085800A8000730A9000030AA008831A8208331F9
:1008680025082604031D3B2C8931562108000A302F
:100878004706031D552C4908A6004808A500C9309D
:10088800A7009830A8000A30A9000030AA008831D3
:10089800A820833125082604031D552C96319D2652
:1008A800080011304706031D752C4908A6004808A2
:1008B800A500B230A7009830A8000B30A90000307E
:1008C800AA008831A820833125082604031D752C29
:1008D80048080B3EB3000030493DB4009331EB2388
:1008E800080009304706031D8F2C4908A600480850
:1008F800A500DE30A7009830A8000930A900003014
:10090800AA008831A820833125082604031D8F2CCE
:100918009631BF26080010304706031DAF2C490842
:10092800A6004808A500BE30A7009830A8000A30E5
:10093800A9000030AA008831A820833125082604A0
:10094800031DAF2C48080A3EB3000030493DB400EF
:100958008A31EF2208000C304706031DC92C4908CC
:10096800A6004808A500A530A7009830A8000C30BC
:10097800A9000030AA008831A82083312508260460
:10098800031DC92C9631E326080015304706031DC0
:10099800E92C4908A6004808A5008930A700983026
:1009A800A8000D30A9000030AA008831A8208331A2
:1009B80025082604031DE92C48080D3EB300003025
:1009C800493DB4009331FA230800963120260800E7
:1009D8003D000E172300D2012100C5014508BD00C6
:1009E800BE013D08A5003E08A6000730A70000305C
:1009F800A800953194258431C630BF000130C0006D
:100A080025083F07C1002608403DC200410886006E
:100A180042088700043081000130BD003D08C50749
:100A280002304502031CF22C2030A5000030A6003D
:100A38000030A700A8001030A9000030AA009431A7
:100A4800F724843123004F082100AC0023004E080E
:100A58002100AB008A31572284312C082000A300E2
:100A680021002B082000A2000830A10080302100BE
:100A7800BD003D082000A000230051082100AC0063
:100A8800230050082100AB008A31572284312C08FA
:100A98002000A70021002B082000A6000830210014
:100AA800BD003D082000A500A4012100C501C50A1C
:100AB8004508BD00BE013D08A5003E08A600073058
:100AC800A7000030A800953194258431C030BF00BC
:100AD8000130C00025083F0786002608403D8700F2
:100AE800403FC300413FC4004408AC004308AB008A
:100AF8008A31572284314508BD000230BD35FF3E9A
:100B0800031D822D3D35223E860087012B08C03FFC
:100B18002C08C13F4508BD00BE013D08A5003E08A0
:100B2800A6000730A7000030A8009531942584312D
:100B3800C430BF000130C00025083F0786002608E2
:100B4800403D87000108C1004508C2000230C23597
:100B5800FF3E031DAB2D4235213E8600870141082B
:100B680081008830BD004508BE000230BE35FF3E1A
:100B7800031DBA2D3E35203E860087013D088100C1
:100B88004508BD00BE013D08A5003E08A600073087
:100B9800A7000030A800953194258431C230BF00E9
:100BA8000130C00025083F0786002608403D870021
:100BB800403FC300413FC4004408AC004308AB00B9
:100BC8008A31572284314508BD000230BD35FF3EC9
:100BD800031DEA2D3D35263E860087012B08C03FC0
:100BE8002C08C13F4508BD00BE013D08A5003E08D0
:100BF800A6000730A7000030A8009531942584315D
:100C0800C530BF000130C00025083F078600260810
:100C1800403D87000108C1004508C2000230C235C6
:100C2800FF3E031D132E4235253E860087014108ED
:100C380081004508BD000230BD35FF3E031D202E52
:100C48003D35243E8600870181010130BD003D0805
:100C5800C50702304502031C5C2D3D000E13080039
:100C68003D000E172300D2012000C4014408BC0037
:100C7800BD013C08F0003D08F1000730F2000030EB
:100C8800F300953143258631C6302000BE0001307F
:100C9800BF0070083E07C00071083F3DC100400812
:100CA800860041088700043081000130BC003C0800
:100CB800C40702304402031C3A2E2030F0000030F2
:100CC800F1000030F200F3001030F4000030F500BD
:100CD8009431C724863123004F08F7004E08F600E8
:100CE8008A31A222863177082000A3007608A20064
:100CF8000830A1008030BC003C08A0002300510847
:100D0800F7005008F6008A31A222863177082000C1
:100D1800A7007608A6000830BC003C08A500A4017E
:100D2800C401C40A4408BC00BD013C08F0003D08E9
:100D3800F1000730F2000030F30095314325863189
:100D4800C0302000BE000130BF0070083E0786009A
:100D580071083F3D8700403FC200413FC300430840
:100D6800F7004208F6008A31A222863120004408A2
:100D7800BC000230BC35FF3E031DBE2E3C35223E72
:100D8800860087017608C03F7708C13F4408BC0049
:100D9800BD013C08F0003D08F1000730F2000030CA
:100DA800F300953143258631C4302000BE00013060
:100DB800BF0070083E07860071083F3D87000108A4
:100DC800C0004408C1000230C135FF3E031DE82EB3
:100DD8004135213E86008701400881008830BC00EB
:100DE8004408BD000230BD35FF3E031DF72E3D35DA
:100DF800203E860087013C0881004408BC00BD01F4
:100E08003C08F0003D08F1000730F2000030F30024
:100E1800953143258631C2302000BE000130BF0025
:100E280070083E07860071083F3D8700403FC200BA
:100E3800413FC3004308F7004208F6008A31A22266
:100E4800863120004408BC000230BC35FF3E031D3B
:100E5800292F3C35263E860087017608C03F770853
:100E6800C13F4408BC00BD013C08F0003D08F1004A
:100E78000730F2000030F300953143258631C53044
:100E88002000BE000130BF0070083E0786007108D0
:100E98003F3D87000108C0004408C1000230C13549
:100EA800FF3E031D532F4135253E8600870140082C
:100EB80081004408BC000230BC35FF3E031D602F92
:100EC8003C35243E8600870181010130BC003C0886
:100ED800C40702304402031C962E3D000E1308007E
:100EE80000303402083003193302031C802F083005
:100EF800B9000030BA00842F3408BA003308B900AA
:100F08003908B7003708BF003F08B700B8013608EE
:100F18003802031D912F35083702031C982F360815
:100F2800BC003508BB009F2F3F08B700B801370841
:100F3800BB003808BC003B08B7003708BF003608BC
:100F48003402031DA92F350833020318AD2F0130D1
:100F5800AE2F0030B70037082300DC0050088600A9
:100F680051088700200031088400320885003F08B6
:100F7800B70037080319C42F12001E00B70BC02F83
:100F880020003F08B700B801370831072300D50013
:100F980020003808323D2300D600200034083602ED
:100FA800031DD82F33083502031CDE2F3408BE007A
:100FB8003308E12F3608BE003508BD003F08B700EA
:100FC800B80137083D02EC0038083E3BED0023002D
:100FD800D21520003F08B700B8013708FB003808D1
:100FE800FC0097317927080008302000A1008030E4
:080FF800F0007008A0000800E1
:1010020021004A080800AD002708A900AA010530FE
:10101200A935AA0D890B09282908803EAB001F308B
:101022002A3DAC00213028020318080004302702B0
:10103200031808002808031908002C08A6002B082A
:10104200A5009431702488312508A9002D08860056
:1010520002308700290881000130AB070030AC3D27
:101062000130A9002908AD070130A8021B28FC00A5
:101072007C08F600F7017608F0007708F1000730E7
:10108200F2000030F300953143258831C530F80075
:101092000130F9007008780786007108793D8700F1
:1010A2000108FA007C08FB000230FB35FF3E031DFD
:1010B20056287B35253E860087017A0881008430D8
:1010C200F6007C08F7000230F735FF3E031D652865
:1010D2007735243E860087017608810008002200C9
:1010E2000D1393316023883122008D1605302100C3
:1010F200A5001B30890B7B28A50B7B280032220020
:101102008D1293316023883122008D16093021001F
:10111200A500E130890B8B28A50B8B2822008D12AC
:1011220093316023883122008D160F302100A500F3
:101132001130890B9A28A50B9A2822008D1293311F
:101142006023883122000D1793316023080001309B
:10115200A9020030AA3B290A03192A0A0319DE2828
:10116200250886002608870001080319C6282708D3
:101172008400280885000008AB00250886002608A0
:10118200870001082B060319D528250886002608A2
:101192008700270884002808850000080102A500AE
:1011A200A601031CA60308000130A5070030A63DD6
:1011B2000130A7070030A83DA828A501A601080014
:1011C20023004F082000E60023004E082000E5001F
:1011D20065088600660887000030811B0130230005
:1011E200D900933179238831A41FFC280830E30009
:1011F2006308A500A4016C086D0403190329933147
:10120200A523883120006508860066088700010E44
:10121200890C0339003A031D162980313D2088319B
:10122200E3006308E400E41F1829933191233D0091
:101232000E120800AB00AA0122008D139331602325
:10124200893120000D1A4F2921002B08033EA900E5
:101252002908A5002B088931922189312B08043EE7
:10126200A9002908A5002B08013E89319221893164
:101272002B08053EA9002908A5002B08023E89314A
:1012820092218931AA01AA0A22008D179331602383
:10129200893122008D1393316023893122008D1709
:1012A2009331602321002A080800AD3089311B21C7
:1012B2008931003A031974290630AC002C08C600A3
:1012C20020006E0886006F088700AD30840085011B
:1012D20021004608AC002C080319080012001E0069
:1012E200AC0B6F2908003030B3009930B4002000F5
:1012F2006F082100A60020006E082100A500340816
:10130200A8003308A7009531292589313408A600A1
:101312003308A5009431B0242508AC002C08C6007F
:101322000800A80028088600870181012508860098
:10133200870181010830A6002608A70093319B236C
:10134200893121002808860087010310810D2508B4
:10135200860087010310810DFE30A6002808860052
:10136200870126088105FE30A60025088600870130
:101372002608810520000D1EC329210028088600A9
:101382008701011420008E1FCB2921002508860029
:101392008701011401302100A702031908009F29C7
:1013A2009331C72389311F302100B4007130B3005B
:1013B2001E30890BDA29B30BDA29B40BDA290000C3
:1013C200B6302100B3003308A800B730B4003408A7
:1013D200A900B830B5003508AA0008309731CF27E8
:1013E2008931B9302100B3003308A800BA30B40003
:1013F2003408A900BB30B5003508AA000C3097317B
:10140200CF278931B6302100AB000030AC00063066
:10141200B3003308AD0002308B313D238931963160
:101422005D260800F3007308031D232A7008860056
:1014320087016430C03F9830C13F0430F000003073
:10144200F10008007303031D322A70088600870129
:101452000030C03F9830C13F2C30F0000030F10026
:10146200080002307306031D422A700886008701B5
:101472000030C03F9030C13F3A30F0000030F10000
:10148200080003307306031D522A70088600870184
:10149200D430C03F9830C13F0A30F0000030F10034
:1014A2000800FF30F000FF30F10008002C08BC00FB
:1014B2002B08BB0020303C02003003193B02031C06
:1014C200672A3C08AC003B08AB0008003C08AD00B2
:1014D2002D08B9003B08AD002D08BA003A087F3943
:1014E200AD00AE013A088039AF00B0013908B10051
:1014F200B201B135B20D2F083107B3003008323DC9
:10150200B400330834040319882A0130892A0030D0
:10151200B500B6013508A5003608A6005030A70070
:101522000030A800953194252D082507B7002E0814
:10153200263DB8003708E03EAB001F30383DAC0016
:1015420008007708FB007608FA0020307B020030A2
:1015520003197A02031CB22A7B08F7007A08F60004
:1015620008007B082000B0003008F8007A08B000BC
:101572003008F90079087F39B000B1017908803963
:10158200B200B3017808B400B501B435B50D320824
:101592003407B6003308353DB7003608370403195F
:1015A200D42A0130D52A0030B800B9013808F00039
:1015B2003908F1005030F2000030F3009531432534
:1015C200200030087007BA003108713DBB003A08AC
:1015D200E03EF6001F303B3DF70008003408AC0047
:1015E2003308AB000630B5003508AD0002308B3150
:1015F2003D238A3121003308860034088700010820
:10160200B5003508A8003308860034088700413148
:101612000108B6003608A90033088600340887009E
:1016220042310108B7003708AA00083096313E2639
:101632008A312100330886003408870043310108CB
:10164200B5003508A8003308860034088700443105
:101652000108B6003608A90033088600340887005E
:1016620045310108B7003708AA000C3096313E26F2
:101672008A3196315D260800B0003008AE00AF0115
:101682000530AE35AF0D890B422B2E08803EB100DE
:101692001F302F3DB20021302D0203180800043004
:1016A2003002031808003208A6003108A50095315F
:1016B2000F258B3102302D02031C7E2B3208A6002F
:1016C2003108A5002B0886002C0887000108AE000F
:1016D200AF012E08A7002F08A800A901A90A973177
:1016E20052278B310130AB070030AC3D0130B107DE
:1016F2000030B23D0130AD025B2B3208A60031084A
:10170200A5002B0886002C0887000108AE00AF0157
:101712002E08A7002F08A800A901973152272300FD
:10172200150808008D31EE258B3127001B169B17FB
:101732000B178B178C31A7248B31883101208B3109
:10174200003A03199E2B013094315E248B31003A0A
:1017520003199E2B01309531AF258B31003A031DC1
:10176200E62B013094314D248B31003A031DB22B0C
:10177200C8302300E50065082100AB000130973135
:10178200A2278B312300E60066082100C700013042
:10179200963103268B3127082000EF00210026080E
:1017A2002000EE00833116238B31210046082300EE
:1017B200E500E60165082100B0002300660821006B
:1017C200B10001308D3108258B3101308E31632615
:1017D2008B319E2B20002108F1007108F5002300B7
:1017E2005903031DF72B9331A52308005B08031946
:1017F20008007508F100F20120006D087202031D55
:10180200042C6C087102031C0B2C6D08F4006C088C
:10181200F300122C7508F100F2017108F30072084E
:10182200F4007308F1007108F60023005B088600DB
:10183200870123004E0884004F0885007608F100D6
:1018420071080319282C12001E00F10B242C7608B3
:10185200F10071082300DB077608F100F20171083C
:101862002000EC027208ED3B08307502031C3D2C8F
:101872006C086D04031D0800750876020318452CD8
:10188200933191238B31F42B933180230800111073
:101892009110920197018E15111611159011901148
:1018A2009011901190019215921612149830F00036
:1018B2000E30F1000030F200F3001030F40000307E
:1018C200F5009431C7248C313D0018169811181573
:1018D200981418102000C501C50A4508983EFC005E
:1018E200FD010E30FD3D7C08C6007D08C70046089C
:1018F20086004708870001164608860047088700C9
:1019020081154608860047088700011546088600AB
:10191200470887008114460886004708870001109F
:101922000130FC007C08C50702304502031C6E2C06
:101932003D0096012300DF012100CA0186313426D1
:101942008C319331A5232100121508003D0011109E
:101952009110920197018E15111611159011901187
:101962009011901190019215921612149830210044
:10197200A5000E30A6000030A700A8001030A90074
:101982000030AA009431F7248C313D0018169811CA
:101992001815981418102300E201E20A6208983E12
:1019A200E000E1010E30E13D6008E3006108E4007F
:1019B20063088600640887000116630886006408CD
:1019C2008700811563088600640887000115630893
:1019D2008600640887008114630886006408870013
:1019E20001100130E0006008E20702306202031CCD
:1019F200CF2C3D0096012300DF012100CA01843172
:101A0200EC248C319331B023210012150800B80068
:101A12004A080319080038089531AF258D31003A7C
:101A2200031D08003808B2000230B235FF3E031D24
:101A3200162D3235243EB3003308B9003808B200FF
:101A4200B3013208A5003308A6000730A700003012
:101A5200A800953194258D31C630B4000130B5000F
:101A62002508340786002608353D8700811D3B2D59
:101A720001303C2D0030B6003608B7003908860028
:101A820087018101370803194F2D3008B200390A46
:101A92008600870132088100C830572D3008B20015
:101AA200390A86008701320881008830B20039087D
:101AB20086008701320881000830B2003808B3007E
:101AC200B4013308A5003408A6000730A70000308F
:101AD200A80095319425C630B5000130B60025081E
:101AE200350786002608363D870032088106080041
:101AF20023005F080319822D5E083D009600230033
:101B0200DF0120006C086D040319DB2D00306D022B
:101B1200083003196C02031C932D0830B300003007
:101B2200B400972D6D08B4006C08B3003308B100FF
:101B32003108B500230050088600510887002300B1
:101B4200550884005608850020003508B100310888
:101B52000319AF2D12001E00B10BAB2D200035086A
:101B6200B100B2013108EC023208ED3B3508B10098
:101B7200B20131082300D507200032082300D63DE8
:101B820020006C086D04031DD02D08303506031D9E
:101B9200D02D23005C080319D02DDD01DD0A2000C1
:101BA2003508B100B2013108FB003208FC00973160
:101BB2007927080023005D080319EA2D0030FB0095
:101BC200FC00973179278D312300DD019331A52364
:101BD20008005908031D0800E72D3C302100990434
:101BE20023008C018D018E0122009D0121008C12A7
:101BF20022008C1221000C1222000C1221008E11E4
:101C02000E128E120E1322008E150E128E120E134B
:101C12009331BB238D3102302100AF008630AE00FC
:101C22009930890B122EAE0B122EAF0B122E883169
:101C320070208D3102302100AF008630AE00993025
:101C4200890B212EAE0B212EAF0B212E9431DF24D6
:101C52008D3102302100AE002E08A7002030AF00E7
:101C62002F08A8002030883104208D31240020085C
:101C72002100AE002E08A800240021082100AF0098
:101C82002F08A900240022082100B0003008AA0071
:101C9200083096313E268D31240023082100AE0003
:101CA2002E08A800240024082100AF002F08A90054
:101CB200240025082100B0003008AA000C3096311B
:101CC2003E260800B2003208AB00AC012B08A5008A
:101CD2002C08A6000730A7000030A80095319425F3
:101CE2008E31C630AD000130AE0025082D078600CA
:101CF20026082E3D8700011D802E0130812E0030E6
:101D0200AF002F08B10031080319B82E3208AB001A
:101D1200AC012B08A5002C08A6000730A700003054
:101D2200A800953194258E31C430AD000130AE004B
:101D320025082D07860026082E3D87000108AF00E2
:101D42003208B0000230B035FF3E031DA42E3035FC
:101D5200213E860087012F088100C830AB0032087F
:101D6200AC000230AC35FF3E031DB32EE82E320824
:101D7200AB00AC012B08A5002C08A6000730A70079
:101D82000030A800953194258E31C430AD00013069
:101D9200AE0025082D07860026082E3D8700010883
:101DA200AF003208B0000230B035FF3E031DD52E21
:101DB2003035213E860087012F0881008830AB0034
:101DC2003208AC000230AC35FF3E031DE42E2C3548
:101DD200203E860087012B0881000430AB003208C8
:101DE200AC00AD012C08A5002D08A6000730A70005
:101DF2000030A80095319425C630AE000130AF0006
:101E020025082E07860026082F3D87002B0881060D
:101E120008003D00101C122F8C3148248F313D00E8
:101E22001010901E472F01302100A2000030A300A5
:101E320098302000E7000E30E80021002208200040
:101E42006707E900210023082000683DEA006908CD
:101E52002100A00020006A082100A10020088600BD
:101E62002108870001100130A2070030A33D23089A
:101E7200803A2000E70080306702031D432F0230C2
:101E820021002202031C192F3D0090129019921D6D
:101E9200F92F0F0C2000E700E70C670C0F39003A0E
:101EA200031D782F3D000F19782F2000200C890C7C
:101EB2000F39E70067082100A4000D302406031D36
:101EC200662F8831E1208F31742F093024060319DF
:101ED200742F2403031D712F8B31EB238F31742F49
:101EE200933191238F318731F8278F31F72F3D00BE
:101EF2000F0C2000E700E70C670C0F39003A031DB6
:101F0200892F3D000F1D892F8D3179258F31F72FB4
:101F12003D000F0C2000E700E70C670C0F39003A78
:101F22000319F72F3D000F0C2000E700E70C670CA8
:101F32000F39E800023068020318F72F3D000F1D29
:101F4200CD2F0F0C2000E700E70C670C0F39E800DB
:101F5200E9016808F0006908F1000730F20000307A
:101F6200F300953143258F31C6302000EA0001305D
:101F7200EB0070086A07860071086B3D8700811CC0
:101F8200F72F3D000F0C2000E700E70C670C0F391C
:101F9200883138208F31F72F0F0C2000E700E70C33
:101FA200670C0F39E800E9016808F0006908F100E0
:101FB2000730F2000030F300953143258F31C630EF
:101FC2002000EA000130EB0070086A078600710801
:101FD2006B3D8700011CF72F3D000F0C2000E7002E
:101FE200E70C670C0F399531E6258F313D009011D2
:101FF200101B10132000121D0800121108003A34A1
:102002000334553400345334003442340034203421
:102012000034503400346F34003474340034653486
:1020220000346E34003474340034693400346F3454
:102032000034733400347434003461340034743442
:1020420000342F34003467340034613400346C348B
:10205200003476340034613400346E3400346F342A
:102062000034733400347434003461340034743412
:02207200003438
:1026C0004230890B612B0032080022000C12963137
:1026D0005D26080022000C1696315D2608002200B7
:1026E0008C1696315D26080022008C1296315D26EC
:1026F00008000830F00070082000A500A4010800C0
:102700002000A401A501C830F0007008A400080052
:10271000230055309600AA30960095140000000062
:1027200008000830F00070082000A5008430F00098
:102730007008A400080022008D16933160239331A5
:1027400022008D129331602308002300D501D601A9
:10275000DB012000EC01ED012300D701D8010800C6
:102760002300D501D601DB012000EC01ED0123009F
:10277000D701D80108000D178D1721000D138D13F7
:102780008D1222008D1221000D168E1708002030A8
:10279000AB002B08A800A130AC002C08A900043025
:1027A0009531792508006400800101310130FE0275
:1027B0000030FF3B7F087E0403190034D42BFE0059
:1027C00012001E000130FE020030FF3B7F087E0435
:1027D00003190034E02B3408AC003308AB0006309A
:1027E000B5003508AD0001308B313D239331963172
:1027F0005D2608003408AC003308AB000830B50093
:102800003508AD0003308B313D23933196315D2681
:10281000080022008E159C302100AE00D730890BB5
:102820000F2CAE0B0F2C22000E128E120E139631AF
:102830005D26080022000E169C302100AE00D73025
:10284000890B202CAE0B202C22008E118E120E1321
:1028500096315D26080022008E169C302100AE00C5
:10286000D730890B312CAE0B312C22008E110E1279
:102870000E1396315D26080022000E179C302100B1
:10288000AE00D730890B422CAE0B422C22008E11A9
:102890000E128E1296315D2608002100A600260831
:1028A000A5000230A535FF3E031D522C2535243EE0
:1028B00086008701010D010D01390800A6002608D8
:1028C000A5000230A535FF3E031D622C2535203EB4
:1028D000860087010310811F03140030093D0800A2
:1028E00026082300920021002508230091001513DB
:1028F000151400000000230014082100A600230086
:1029000013082100A500080000340034003400340E
:1029100000340034003490342034D0342034403437
:1029200040340034803420348834203400342C3453
:102930009834A6000830A5002508A700A61FA32CE0
:1029400022000D16A52C22000D1293319B239431E9
:1029500003102100A60D0130A702031908009E2CC8
:102960002608A9002508A800280884002908850051
:1029700012000319C02C0130A8070030A93DB42C67
:1029800025082802A5002608293BA6000800710892
:10299000F7007008F6000130F4020030F53B740ACD
:1029A0000319750A0319080076088600770887005E
:1029B000720881000130F6070030F73DCB2C203043
:1029C0002100AC002C08A800A030AD002D08A90003
:1029D000043095317925943180302100AC002C08E9
:1029E000A800A901AA01003096313E260800260859
:1029F000AC002508AB000130A9020030AA3B290A2F
:102A000003192A0A031908002B0886002C088700DE
:102A1000270881000130AB070030AC3DFB2C0030B3
:102A20008B1B0130A7008B13260823009200210086
:102A300025082300910015131516151593318823C9
:102A400095312300151121002708031908008B1761
:102A500008002608AA002508A900290886002A08D7
:102A6000870027088400280885000008C03F8908DF
:102A7000031908000130A9070030AA3D0130A7075B
:102A80000030A83D2D2DF401F501701C4B2D72086E
:102A9000F4077308F53D0130F235F30D890B4C2D29
:102AA0000130F136F00C890B512D70087104031DB3
:102AB000452D7508F1007408F0000800FA007A0846
:102AC000F600F7017608F0007708F1000730F20011
:102AD0000030F30095314325C630F8000130F9008D
:102AE0007008780786007108793D8700010802396F
:102AF0000800AA0022000D139331602395312100B4
:102B00000D122A08203E94319924953128089431D9
:102B10009924953129089431992495310D16220074
:102B20000D17933160230800A901AA01251C9C2DD3
:102B30002708A9072808AA3D0130A735A80D890B49
:102B40009D2D0130A636A50C890BA22D2508260443
:102B5000031D962D2A08A6002908A5000800AF002D
:102B60002F08AB00AC012B08A5002C08A6000730ED
:102B7000A7000030A80095319425C630AD00013083
:102B8000AE0025082D07860026082E3D8700010887
:102B9000023908002100A7010830A5002508A60079
:102BA00093319B23953103102100A70DFE30A50022
:102BB0002508A70520000D1EDF2D21002714013058
:102BC0002100A602031DD02D27080800F20072087C
:102BD000F0000230F035FF3E031DEA2D7035213E36
:102BE0008600870181018430F0007208F100023014
:102BF000F135FF3E031DF82D7135203E860087011B
:102C0000700881000800AF002F08AB00AC012B0852
:102C1000A5002C08A6000730A7000030A8009531B9
:102C20009425C230AD000130AE0025082D07860086
:102C300026082E3D8700403FA600413FA700080020
:102C40003830AC009930AD0020006F082100A6009C
:102C500020006E082100A5002D08A8002C08A70060
:102C60009531292596312D08A6002C08A500943110
:102C7000B0242508AB002B08C6000800AB002200DA
:102C80000D1393316023963121000D122B08403E25
:102C90009431992496312808943199249631290841
:102CA0009431992496312A089431992496310D163D
:102CB00022000D1793316023080035302100AC004D
:102CC0009930AD0020006F082100A60020006E089A
:102CD0002100A5002D08A8002C08A7009531292562
:102CE00096312D08A6002C08A5009431B0242508A3
:102CF000AB002B08C60008002E0886002F088700AE
:102D00000108B0003008A8002E0886002F088700B0
:102D100041310108B1003108A9002E0886002F08B2
:102D2000870042310108B2003208AA000030963113
:102D30003E26963196315D260800A701A70A20306D
:102D4000AE002E08A80020308831042096310630CD
:102D5000AE002E08C60020006E0886006F088700AF
:102D6000203084000230850021004608AE002E0885
:102D70000319080012001E00AE0BBA2E0800023024
:102D8000AE002E08A7002030AF002F08A80020308A
:102D90008831042096310630AE002E08C60020008F
:102DA0006E0886006F08870020308400023085009E
:102DB00021004608AE002E080319080012001E006C
:102DC000AE0BDE2E08000330AE002E08A700203028
:102DD000AF002F08A8002030883104209631083039
:102DE000AE002E08C60020006E0886006F0887001F
:102DF000203084000230850021004608AE002E08F5
:102E00000319080012001E00AE0B022F0800FA0082
:102E10007A080319080002307A02031808007A08B9
:102E2000F600F7017608F0007708F1000730F200AD
:102E30000030F300953143259731C630F80001305A
:102E4000F9007008780786007108793D8700011441
:102E50007A089531E6250800FD007D080319080071
:102E600002307D02031808007D08B000B10130086F
:102E7000F0003108F1000730F2000030F300953126
:102E800043259731C6302000B2000130B3007008EE
:102E9000320786007108333D870081147D08883130
:102EA0003820080000308B1B0130AA008B13260845
:102EB000230092002100250823009100210028080A
:102EC0002300940021002708230093002100290CEF
:102ED0002300031C951203189516151315121515CA
:102EE00093318823973121002A08031908008B1792
:102EF0000800003095315E259731003A031D080027
:102F00002300D21D852F0130862F0030FD007D0863
:102F10002000B000A40130080319942F7B08FD00A5
:102F20007D08A500C830992F7B08FD007D08A5000D
:102F30008830FD007D08A4000830FD007D082300D6
:102F4000D2060800B0003008AC00AD012C08A50086
:102F50002D08A6000730A7000030A8009531942561
:102F60009731C030AE000130AF0025082E07860033
:102F700026082F3D87002B0884008501403F803FB5
:102F8000413F813F3008AC000230AC35FF3E031DAD
:102F9000C52F2C35213E8600870101080800AC00B2
:102FA00022000D1393316023973121000D122C085C
:102FB000C03E9431992497310D1693316023973197
:102FC0009531CA259731AB002808860087012B0868
:102FD00081009531CA259731AB0029088600870109
:102FE0002B0881009531CA259731AB002A0886004D
:102FF00087012B08810022000D1793316023080000
:103000002C340334433400346F34003443340034FC
:103010006F3400346F3400344E34003420340034C4
:103020007234003465340034733400346534003451
:103030006134003472340034633400346834003452
:103040002034003467340034723400346F34003478
:1030500075340034703400340934023420340034C0
:1030600001340134023480343234093404340034FD
:1030700000340234FF3400340034023407340534A1
:1030800081340234403400340134073405340134CF
:1030900002344034003401341834033449340034E9
:1030A0006E340034743400346534003472340034C7
:1030B00066340034613400346334003465340034E1
:1030C00020340034313400340434033409340434FB
:1030D00050344F34543445344E34543449344F34DE
:1030E0005334543441345434493443340034123466
:1030F0000134003402340034003400340834A03485
:10310000A034023400340134003401340234033476
:1031100001345334483455344E34543443344134F8
:103120004C3453344134563445342034003447341D
:1031300041344C34563441344E344F345334543487
:1031400041345434493443340034533448345534CE
:103150004E345434433441344C3452344534413485
:10316000443400344F3446344634533445345434B4
:1031700053344134563445342034003444344134DB
:103180004334433441344C34533445345434203480
:1031900000344F3446344634533445345434523476
:1031A00045344134443400340A3403343034003478
:1031B0003034003430340034313400344434413459
:1031C0004334433441344C3447344534543400346C
:1031D000433445344C344C3420344F344634463434
:1031E000003444344134433453344534543420346B
:1031F0000034523441344E34473445342034313471
:103200000034523441344E3447344534203432345F
:103210000034523441344E3447344534203433344E
:103220000034523441344E3447344534203434343D
:10323000003441344434433452344534413444340A
:103240000034433445344C344C3420344F344E3401
:103250000034443441344334433441344C34003436
:10326000573441344934543400344F344B340034EF
:043270003F340034B3
:020000040001F9
:04000E00A4CFCFFFAD
:00000001FF
